{
  "contractName": "TodoList",
  "abi": [
    {
      "constant": true,
      "inputs": [
        {
          "name": "",
          "type": "uint256"
        }
      ],
      "name": "tasks",
      "outputs": [
        {
          "name": "id",
          "type": "uint256"
        },
        {
          "name": "content",
          "type": "string"
        },
        {
          "name": "completed",
          "type": "bool"
        }
      ],
      "payable": false,
      "stateMutability": "view",
      "type": "function"
    },
    {
      "constant": true,
      "inputs": [],
      "name": "taskCount",
      "outputs": [
        {
          "name": "",
          "type": "uint256"
        }
      ],
      "payable": false,
      "stateMutability": "view",
      "type": "function"
    },
    {
      "inputs": [],
      "payable": false,
      "stateMutability": "nonpayable",
      "type": "constructor"
    },
    {
      "anonymous": false,
      "inputs": [
        {
          "indexed": false,
          "name": "id",
          "type": "uint256"
        },
        {
          "indexed": false,
          "name": "content",
          "type": "string"
        },
        {
          "indexed": false,
          "name": "completed",
          "type": "bool"
        }
      ],
      "name": "TaskCreated",
      "type": "event"
    },
    {
      "anonymous": false,
      "inputs": [
        {
          "indexed": false,
          "name": "id",
          "type": "uint256"
        },
        {
          "indexed": false,
          "name": "completed",
          "type": "bool"
        }
      ],
      "name": "TaskToggled",
      "type": "event"
    },
    {
      "anonymous": false,
      "inputs": [
        {
          "indexed": false,
          "name": "id",
          "type": "uint256"
        },
        {
          "indexed": false,
          "name": "content",
          "type": "string"
        }
      ],
      "name": "TaskEdited",
      "type": "event"
    },
    {
      "constant": false,
      "inputs": [
        {
          "name": "_content",
          "type": "string"
        }
      ],
      "name": "createTask",
      "outputs": [],
      "payable": false,
      "stateMutability": "nonpayable",
      "type": "function"
    },
    {
      "constant": false,
      "inputs": [
        {
          "name": "_id",
          "type": "uint256"
        }
      ],
      "name": "toggleTask",
      "outputs": [],
      "payable": false,
      "stateMutability": "nonpayable",
      "type": "function"
    },
    {
      "constant": false,
      "inputs": [
        {
          "name": "_id",
          "type": "uint256"
        },
        {
          "name": "_content",
          "type": "string"
        }
      ],
      "name": "editTask",
      "outputs": [],
      "payable": false,
      "stateMutability": "nonpayable",
      "type": "function"
    }
  ],
  "bytecode": "0x60806040526000805534801561001457600080fd5b506100626040805190810160405280601181526020017f496e697469616c2074657374207461736b000000000000000000000000000000815250610101640100000000026401000000009004565b6100af6040805190810160405280601481526020017f496e697469616c2074657374207461736b202332000000000000000000000000815250610101640100000000026401000000009004565b6100fc6040805190810160405280601481526020017f496e697469616c2074657374207461736b202333000000000000000000000000815250610101640100000000026401000000009004565b6102ec565b6000808154809291906001019190505550606060405190810160405280600054815260200182815260200160001515815250600160008054815260200190815260200160002060008201518160000155602082015181600101908051906020019061016d929190610247565b5060408201518160020160006101000a81548160ff0219169083151502179055509050507f05d0fb833127fc08168556d0e7ca9554fc3f6bc843b3b7d2bf1c35aea6bab660600054826000604051808481526020018060200183151515158152602001828103825284818151815260200191508051906020019080838360005b838110156102085780820151818401526020810190506101ed565b50505050905090810190601f1680156102355780820380516001836020036101000a031916815260200191505b5094505050505060405180910390a150565b828054600181600116156101000203166002900490600052602060002090601f016020900481019282601f1061028857805160ff19168380011785556102b6565b828001600101855582156102b6579182015b828111156102b557825182559160200191906001019061029a565b5b5090506102c391906102c7565b5090565b6102e991905b808211156102e55760008160009055506001016102cd565b5090565b90565b610919806102fb6000396000f30060806040526004361061006d576000357c0100000000000000000000000000000000000000000000000000000000900463ffffffff168063111002aa14610072578063613137a4146100db5780638d97767214610108578063b6cb58a5146101c0578063cb7bd995146101eb575b600080fd5b34801561007e57600080fd5b506100d9600480360381019080803590602001908201803590602001908080601f016020809104026020016040519081016040528093929190818152602001838380828437820191505050505050919291929050505061025e565b005b3480156100e757600080fd5b50610106600480360381019080803590602001909291905050506103a4565b005b34801561011457600080fd5b506101336004803603810190808035906020019092919050505061054f565b604051808481526020018060200183151515158152602001828103825284818151815260200191508051906020019080838360005b83811015610183578082015181840152602081019050610168565b50505050905090810190601f1680156101b05780820380516001836020036101000a031916815260200191505b5094505050505060405180910390f35b3480156101cc57600080fd5b506101d561061e565b6040518082815260200191505060405180910390f35b3480156101f757600080fd5b5061025c60048036038101908080359060200190929190803590602001908201803590602001908080601f0160208091040260200160405190810160405280939291908181526020018383808284378201915050505050509192919290505050610624565b005b600080815480929190600101919050555060606040519081016040528060005481526020018281526020016000151581525060016000805481526020019081526020016000206000820151816000015560208201518160010190805190602001906102ca929190610824565b5060408201518160020160006101000a81548160ff0219169083151502179055509050507f05d0fb833127fc08168556d0e7ca9554fc3f6bc843b3b7d2bf1c35aea6bab660600054826000604051808481526020018060200183151515158152602001828103825284818151815260200191508051906020019080838360005b8381101561036557808201518184015260208101905061034a565b50505050905090810190601f1680156103925780820380516001836020036101000a031916815260200191505b5094505050505060405180910390a150565b6103ac6108a4565b600160008381526020019081526020016000206060604051908101604052908160008201548152602001600182018054600181600116156101000203166002900480601f01602080910402602001604051908101604052809291908181526020018280546001816001161561010002031660029004801561046e5780601f106104435761010080835404028352916020019161046e565b820191906000526020600020905b81548152906001019060200180831161045157829003601f168201915b505050505081526020016002820160009054906101000a900460ff161515151581525050905080604001511581604001901515908115158152505080600160008481526020019081526020016000206000820151816000015560208201518160010190805190602001906104e3929190610824565b5060408201518160020160006101000a81548160ff0219169083151502179055509050507fe668c7a227d9261aa1f964bf5a852ab642446a7af6c29405caf8d0e9ce2c11f082600160405180838152602001821515151581526020019250505060405180910390a15050565b6001602052806000526040600020600091509050806000015490806001018054600181600116156101000203166002900480601f0160208091040260200160405190810160405280929190818152602001828054600181600116156101000203166002900480156106015780601f106105d657610100808354040283529160200191610601565b820191906000526020600020905b8154815290600101906020018083116105e457829003601f168201915b5050505050908060020160009054906101000a900460ff16905083565b60005481565b61062c6108a4565b600160008481526020019081526020016000206060604051908101604052908160008201548152602001600182018054600181600116156101000203166002900480601f0160208091040260200160405190810160405280929190818152602001828054600181600116156101000203166002900480156106ee5780601f106106c3576101008083540402835291602001916106ee565b820191906000526020600020905b8154815290600101906020018083116106d157829003601f168201915b505050505081526020016002820160009054906101000a900460ff16151515158152505090508181602001819052508060016000858152602001908152602001600020600082015181600001556020820151816001019080519060200190610757929190610824565b5060408201518160020160006101000a81548160ff0219169083151502179055509050507f126a0ea5197c062eb92c789989294eb8d2aef31cf41fd012da26dfab98b29a1683836040518083815260200180602001828103825283818151815260200191508051906020019080838360005b838110156107e45780820151818401526020810190506107c9565b50505050905090810190601f1680156108115780820380516001836020036101000a031916815260200191505b50935050505060405180910390a1505050565b828054600181600116156101000203166002900490600052602060002090601f016020900481019282601f1061086557805160ff1916838001178555610893565b82800160010185558215610893579182015b82811115610892578251825591602001919060010190610877565b5b5090506108a091906108c8565b5090565b60606040519081016040528060008152602001606081526020016000151581525090565b6108ea91905b808211156108e65760008160009055506001016108ce565b5090565b905600a165627a7a72305820c960e6211427c466f2de4c4b9aaeffe72a89a5f13bf78a2aac01ff6e7e147a370029",
  "source": "pragma solidity >=0.4.22 <0.7.0;\n\ncontract TodoList {\n\n  uint public taskCount = 0;\n\n  struct Task {\n    uint id;\n    string content;\n    bool completed;\n  }\n\n  mapping(uint => Task) public tasks;\n  \n  event TaskCreated (uint id, string content, bool completed);\n  event TaskToggled (uint id, bool completed);\n  event TaskEdited (uint id, string content);\n  \n  constructor() {\n        createTask(\"Initial test task\");\n        createTask(\"Initial test task #2\");\n        createTask(\"Initial test task #3\");\n      }\n\n  function createTask(string memory _content) public {    \n    taskCount ++;\n    tasks[taskCount] = Task(taskCount, _content, false); \n    emit TaskCreated(taskCount, _content, false);\n  }\n  \n  function toggleTask(uint _id) public {\n    Task memory _task = tasks[_id];\n    _task.completed = !_task.completed;\n    tasks[_id] = _task;\n    emit TaskToggled(_id, true);\n  }\n\n  function editTask(uint _id, string memory _content) public {\n    Task memory _task = tasks[_id];\n    _task.content = _content;\n    tasks[_id] = _task;\n    emit TaskEdited(_id, _content);\n  }\n\n}",
  "sourcePath": "C:/Users/tolga/Desktop/react-dapp-boilerplate/contracts/TodoList.sol",
  "compiler": {
    "name": "solc",
    "version": "0.4.26+commit.4563c3fc.Emscripten.clang"
  },
  "schemaVersion": "3.4.1",
  "updatedAt": "2021-08-15T11:10:22.335Z",
  "networkType": "ethereum",
  "devdoc": {
    "methods": {}
  },
  "userdoc": {
    "methods": {}
  }
}